8=FIXT.1.1|9=77|35=A|49=DLD_TEX|56=TEX1_DLD|34=1|52=20220513-03:22:39.161|98=0|108=10|1137=8|10=005|